:100000000C946A000C94BE040C9497040C94920017
:100010000C9492000C9492000C9492000C94920018
:100020000C9492000C9492000C9492000C94920008
:100030000C9492000C9492000C9492000C949200F8
:100040000C944D040C9492000C9492000C94920029
:100050000C9492000C9492000C9492000C949200D8
:100060000C9492000C9492002B04B0032D04B20364
:100070002504AD03AD03AD03AD032504B20328048D
:10008000B40300000000240027002A000000000044
:10009000250028002B0004040404040404040202C4
:1000A00002020202030303030303010204081020F7
:1000B0004080010204081020010204081020000002
:1000C0000008000201000003040700000000000017
:1000D0000000500611241FBECFEFD8E0DEBFCDBF19
:1000E00011E0A0E0B1E0E6E7FEE002C005900D926D
:1000F000AA35B107D9F721E0AAE5B1E001C01D9208
:10010000A33AB207E1F710E0CAE6D0E004C02197B5
:10011000FE010E942E07C936D107C9F70E94E504E7
:100120000C9439070C94000090E0FC01E254FF4F5E
:100130003491FC01E655FF4F2491FC01EA56FF4F34
:10014000E491EE2309F43BC0332339F1333091F0CD
:1001500038F43130A9F0323001F584B58F7D12C00A
:10016000373091F03830A1F03430B9F4809180000C
:100170008F7D03C0809180008F77809380000DC0B9
:1001800084B58F7784BD09C08091B0008F7703C09C
:100190008091B0008F7D8093B000F0E0EE0FFF1FE4
:1001A000E457FF4FA591B4918FB7F894EC9161118A
:1001B00003C020952E2301C02E2B2C938FBF0895B2
:1001C000CF93DF9390E0FC01E655FF4F2491FC01B3
:1001D000EA56FF4F8491882361F190E0880F991FC0
:1001E000FC01EE57FF4FC591D491FC01E457FF4F3E
:1001F000A591B491611109C09FB7F89488812095A9
:1002000082238883EC912E230BC0623061F49FB768
:10021000F8943881822F809583238883EC912E2B4C
:100220002C939FBF06C08FB7F894E8812E2B2883AC
:100230008FBFDF91CF9108953FB7F894809165010A
:1002400090916601A0916701B091680126B5A89BC5
:1002500005C02F3F19F00196A11DB11D3FBFBA2F58
:10026000A92F982F8827820F911DA11DB11DBC01B8
:10027000CD0142E0660F771F881F991F4A95D1F77D
:1002800008958F929F92AF92BF92CF92DF92EF929A
:10029000FF926B017C010E941C014B015C01C114A7
:1002A000D104E104F104F1F00E941C01DC01CB0156
:1002B00088199909AA09BB09883E9340A105B1058F
:1002C00070F321E0C21AD108E108F10888EE880E27
:1002D00083E0981EA11CB11CC114D104E104F104F7
:1002E00019F7DDCFFF90EF90DF90CF90BF90AF90E8
:1002F0009F908F9008950895CF92DF92EF92FF9292
:100300000F931F93CF93DF936C017A018B01C0E0B1
:10031000D0E0CE15DF0589F0D8016D918D01D601B1
:10032000ED91FC910190F081E02DC6010995892B9A
:1003300011F47E0102C02196ECCFC701DF91CF916D
:100340001F910F91FF90EF90DF90CF90089581E083
:1003500080935B010895CF93DF93EC0160E08E8181
:100360000E94940061E08E810E94940060E08E8182
:100370000E9494008BE891E00197F1F7DF91CF9113
:100380000895CF92DF92EF92FF920F931F93CF9336
:10039000DF937C016C0187E0C80ED11CC0E0D0E087
:1003A000062F10E0B8010C2E02C0759567950A94CF
:1003B000E2F76170F60181916F010E94940021962D
:1003C000C430D10579F7C701DF91CF911F910F910B
:1003D000FF90EF90DF90CF900C94AB01CF92DF9223
:1003E000EF92FF920F931F93CF93DF93EC01F62EC2
:1003F000642F8C810E9494008D818F3F19F060E002
:100400000E9494008F850F2D10E084FF25C06E019F
:1004100087E0C80ED11CE12CF12CB8010E2C02C0D3
:10042000759567950A94E2F76170F60181916F0105
:100430000E949400FFEFEF1AFF0A88E0E816F1042B
:1004400061F7CE01DF91CF911F910F91FF90EF9057
:10045000DF90CF900C94AB01B80184E0759567955F
:100460008A95E1F7CE010E94C1016F2DCE01DF9187
:10047000CF911F910F91FF90EF90DF90CF900C9450
:10048000C10141E00E94EE0181E090E0089540E06A
:100490000C94EE01EF92FF920F931F93CF93DF9393
:1004A000EC01623018F08F8588608F876B8B1C8A17
:1004B00080E48D8B80E18E8B80E58F8B61E08C8179
:1004C0000E94E0008D818F3F19F061E00E94E00002
:1004D00061E08E810E94E0007E0187E0E80EF11C61
:1004E00000E010E08F8584FD03C084E090E002C04E
:1004F00088E090E0081719074CF461E0F70181915A
:100500007F010E94E0000F5F1F4FECCF8BE39DE067
:100510000197F1F760E08C810E94940060E08E8189
:100520000E9494008D818F3F19F060E00E9494003A
:100530006F8564FD1DC063E0CE010E94C1010BE424
:1005400016E4C8010197F1F763E0CE010E94C101F2
:10055000C8010197F1F763E0CE010E94C10183E574
:1005600092E00197F1F762E0CE010E94C10116C04E
:100570006062CE010E9447028BE496E40197F1F796
:100580006F856062CE010E94470283E592E0019789
:10059000F1F76F856062CE010E9447026F8560624D
:1005A000CE010E94470284E0888B6CE0CE010E945D
:1005B000470261E0CE010E9447028BE39FE1019771
:1005C000F1F782E0898B66E0CE01DF91CF911F9138
:1005D0000F91FF90EF900C944702643008F063E0B5
:1005E00090919E01691710F06FEF690FE62FF0E010
:1005F000E557FE4F9489682F690F60688BE891E09A
:100600000C944702089580E090E00895FC01DC011D
:1006100020E030E040E255E09D912F30310561F45B
:10062000862F963009F11CF49530B9F00895973073
:10063000E9F0903261F008958C919630A9F01CF4A5
:10064000953059F014C0973089F0903281F485309C
:1006500011F080E207C086E005C0803211F085E02D
:1006600001C087E0808303C0508301C040832F5FB7
:100670003F4F31962031310579F60895EF92FF9280
:100680000F931F93CF93DF9300E011E0C1E0D0E020
:10069000BE0183E0660F771F8A95E1F760648BE8FF
:1006A00091E00E944702780188E0E80EF11CF80111
:1006B00061918F018BE891E00E9441020E151F05A8
:1006C000B1F72196C830D10519F7EAE7F1E0A9E6BC
:1006D000B1E080E281938D9391E0EA38F907D1F798
:1006E000DF91CF911F910F91FF90EF9008950097A8
:1006F00069F0FC0101900020E9F73197AF01481B38
:10070000590BBC018BE891E00C947C0180E090E0F7
:1007100008954F925F926F927F92BF92CF92DF9235
:10072000EF92FF920F931F93CF93DF93CDB7DEB776
:10073000A2970FB6F894DEBF0FBECDBF8B01D0904D
:100740007B01C0906A01482F50E04D30510578F48C
:10075000FA01EC5CFF4F0C942E0790E283E008C096
:1007600091E00DC093E00BC090E282E001C080E018
:1007700080937B01BB24B39440E2D41201C0B12C1E
:10078000903241F090936A0181E050E2C51201C0BD
:1007900080E0B82A003187E2180760F4083E93E051
:1007A000190750F40436110548F40A30110540F4D5
:1007B00021E007C025E005C024E003C023E001C01C
:1007C00022E010928A011092790180E190E0821B70
:1007D0009109FC01E658FE4F7F017080108260E0B5
:1007E00080E02AA30E94ED028AE791E00E9477034D
:1007F000F701708261E080E00E94ED0289E691E0FD
:100800000E94770360E080E12AA1821B0E94ED0232
:10081000980140E050E019A27E01F1E2EF0EF11CD8
:100820008AE0482E512C612C712CCA01B901A30118
:1008300092010E94FD06605DF70162937F01211520
:1008400031054105510589F70AC094E08EE290CF49
:1008500090E281E08DCF90E292CF92E090CFCF01F5
:100860000E947703D0927B01C0926A018B2DA296E1
:100870000FB6F894DEBF0FBECDBFDF91CF911F91B1
:100880000F91FF90EF90DF90CF90BF907F906F908F
:100890005F904F9008950E9434071F920F920FB6F9
:1008A0000F9211242F933F938F939F93AF93BF93F6
:1008B0008091610190916201A0916301B091640106
:1008C0003091600123E0230F2D3720F40196A11D04
:1008D000B11D05C026E8230F0296A11DB11D20936E
:1008E00060018093610190936201A0936301B093D2
:1008F00064018091650190916601A0916701B091BA
:1009000068010196A11DB11D809365019093660158
:10091000A0936701B0936801BF91AF919F918F91B0
:100920003F912F910F900FBE0F901F9018951F921F
:100930000F920FB60F9211242F933F934F935F9313
:100940006F937F938F939F93AF93BF93EF93FF9397
:10095000E0913C01F0913D010995FF91EF91BF912C
:10096000AF919F918F917F916F915F914F913F9147
:100970002F910F900FBE0F901F9018951F920F92FE
:100980000FB60F9211242F933F934F935F936F9362
:100990007F938F939F93AF93BF93EF93FF93E091D8
:1009A0003A01F0913B010995FF91EF91BF91AF9111
:1009B0009F918F917F916F915F914F913F912F9177
:1009C0000F900FBE0F901F901895789484B5826099
:1009D00084BD84B5816084BD85B5826085BD85B5E3
:1009E000816085BD80916E00816080936E00109261
:1009F00081008091810082608093810080918100DC
:100A0000816080938100809180008160809380006C
:100A10008091B10084608093B1008091B0008160CA
:100A20008093B00080917A00846080937A008091F6
:100A30007A00826080937A0080917A00816080934E
:100A40007A0080917A00806880937A001092C100C9
:100A500061E08AE00E94E00060E08AE00E94940089
:100A600061E08CE00E94E00060E08CE00E94940075
:100A700060E082E00E94E00061E082E00E94940079
:100A800061E081E00E94E00061E081E00E9494006A
:100A900087EA91E090933B0180933A01809169004D
:100AA0008C7F826080936900E89A0E943E0362E036
:100AB0008BE891E00E944A02D1E04AE0C42ED12C9A
:100AC000E12CF12C53E0852E912CA12CB12C00E0CF
:100AD00010E0C1E067E0762E2BE0622E33E0532E6B
:100AE00080915F0181113CC060915D0170915E0158
:100AF00093E0769567959A95E1F780915C01811175
:100B000003C08091390101C080E00E948903809177
:100B10005C01882341F060E080E00E94ED028EE4F9
:100B200091E00E9477036AEF70E080E090E00E941D
:100B3000410180915C018D2780935C0180915B0174
:100B4000882309F4A6C00E943E03C0933901C093D4
:100B50005F0110925B0110925E0110925D0199C0DD
:100B600040905A0181E0481611F060E201C065E052
:100B700089E691E00E94060382E0481611F060E2E7
:100B800001C065E08AE791E00E9406038091380188
:100B9000815080933801811124C0411017C00E94F8
:100BA000BD06A50194010E94CB06672B682B692B1B
:100BB00011F081E001C082E080935A010E94BD06DD
:100BC000A70196010E94CB066E5F09C010925A01E0
:100BD0000E94BD06A70196010E94CB06665F609346
:100BE000380180915B01882341F080913901833085
:100BF00010F45092390110925B0160915D01709187
:100C00005E0183E0769567958A95E1F780913901D9
:100C10000E948903882319F010925F0134C08091EB
:100C20003901982F977F923019F4C093390119C078
:100C30009BEF980F933038F490916A01903271F0E5
:100C4000609239010EC08B3048F090916A01903269
:100C500019F47092390105C08C3091F38F5F809345
:100C6000390180915D0190915E01019690935E0142
:100C700080935D0161E080916C01803209F060E059
:100C800081E00E94940064E670E080E090E00E94C1
:100C900041010115110509F423CF0E9400001CCF6A
:100CA000EBE8F1E01382128286E491E09183808385
:100CB0008BE084838FEF858389E0868386E087835A
:100CC00085E0808784E0818783E0828713861486AD
:100CD00015861686178661E0CF010C944A028F9222
:100CE0009F92AF92BF92CF92DF92EF92FF92CF93FB
:100CF000DF93EC01688179818A819B81611571059F
:100D00008105910521F464E279ED8BE597E02DE111
:100D100033EF41E050E00E94CB0649015A019B01AC
:100D2000AC01A7EAB1E40E94EA066B017C01ACEEDB
:100D3000B4EFA50194010E94F806DC01CB018C0DF3
:100D40009D1DAE1DBF1DB7FF03C00197A109B0488F
:100D500088839983AA83BB83BC01CD019F77DF91F0
:100D6000CF91FF90EF90DF90CF90BF90AF909F908A
:100D70008F9008950E946F0608958EE391E00E947F
:100D80006F06089560933E0170933F018093400188
:100D9000909341010895052E97FB1EF400940E9444
:100DA000E20657FD07D00E94FD0607FC03D04EF473
:100DB0000C94E20650954095309521953F4F4F4F4A
:100DC0005F4F089590958095709561957F4F8F4FF7
:100DD0009F4F08950E941F07A59F900DB49F900DEF
:100DE000A49F800D911D11240895B7FF0C94EA066D
:100DF0000E94EA06821B930B0895A1E21A2EAA1BF9
:100E0000BB1BFD010DC0AA1FBB1FEE1FFF1FA217BA
:100E1000B307E407F50720F0A21BB30BE40BF50BB7
:100E2000661F771F881F991F1A9469F76095709540
:100E3000809590959B01AC01BD01CF010895A29FC3
:100E4000B001B39FC001A39F700D811D1124911D9E
:100E5000B29F700D811D1124911D0895EE0FFF1F8B
:100E60000590F491E02D099481E090E0F8940C94C1
:060E70003907F894FFCFE2
:100E76000C0C000E1C0C1A130C0C000C0C0C0C0E9B
:100E86000C0C001E0D1F10001E0D1F100000000090
:100E96001F1F1F1F1F1F1F1F03030303030303033C
:100EA600181818181818181801017B017B01010081
:100EB60000000000000041027C010303020350729F
:0A0EC60065737320537461727400A9
:00000001FF
